{
  "contractName": "AuditoriaObras",
  "abi": [
    {
      "constant": true,
      "inputs": [
        {
          "name": "",
          "type": "uint256"
        }
      ],
      "name": "obrasCiviles",
      "outputs": [
        {
          "name": "idObra",
          "type": "uint256"
        },
        {
          "name": "nombreObra",
          "type": "string"
        },
        {
          "name": "cantVotosFavor",
          "type": "uint256"
        },
        {
          "name": "cantVotosContra",
          "type": "uint256"
        },
        {
          "name": "cantMinAprobacion",
          "type": "uint256"
        },
        {
          "name": "walletContratista",
          "type": "string"
        },
        {
          "name": "nombreContratista",
          "type": "string"
        },
        {
          "name": "valorContrato",
          "type": "uint256"
        },
        {
          "name": "fechaIniContrato",
          "type": "string"
        },
        {
          "name": "fechaFinContrato",
          "type": "string"
        }
      ],
      "payable": false,
      "stateMutability": "view",
      "type": "function"
    },
    {
      "constant": true,
      "inputs": [
        {
          "name": "",
          "type": "address"
        },
        {
          "name": "",
          "type": "uint256"
        }
      ],
      "name": "voters",
      "outputs": [
        {
          "name": "",
          "type": "bool"
        }
      ],
      "payable": false,
      "stateMutability": "view",
      "type": "function"
    },
    {
      "constant": true,
      "inputs": [],
      "name": "obrasCivilesCount",
      "outputs": [
        {
          "name": "",
          "type": "uint256"
        }
      ],
      "payable": false,
      "stateMutability": "view",
      "type": "function"
    },
    {
      "inputs": [],
      "payable": false,
      "stateMutability": "nonpayable",
      "type": "constructor"
    },
    {
      "anonymous": false,
      "inputs": [
        {
          "indexed": true,
          "name": "idObra",
          "type": "uint256"
        }
      ],
      "name": "votedEvent",
      "type": "event"
    },
    {
      "constant": false,
      "inputs": [
        {
          "name": "idObra",
          "type": "uint256"
        },
        {
          "name": "concepto",
          "type": "bool"
        }
      ],
      "name": "vote",
      "outputs": [],
      "payable": false,
      "stateMutability": "nonpayable",
      "type": "function"
    }
  ],
  "bytecode": "0x60806040523480156200001157600080fd5b506200011f6040518060400160405280601b81526020017f416d706c696163696f6e20686f73706974616c204b656e6e656479000000000081525060066040518060600160405280602a815260200162000e5c602a91396040518060400160405280601181526020017f4f6465627265636820436f6c6f6d6269610000000000000000000000000000008152506702386f26fc1000006040518060400160405280600a81526020017f323031372d30322d3231000000000000000000000000000000000000000000008152506040518060400160405280600a81526020017f323031382d30392d3130000000000000000000000000000000000000000000008152506200032360201b60201c565b6200022c6040518060400160405280601481526020017f43696e656d61746563612044697374726974616c00000000000000000000000081525060056040518060600160405280602a815260200162000dd7602a91396040518060400160405280601681526020017f436f6e7374727563747572612041434d4520532e412e000000000000000000008152506706623f9014ae00006040518060400160405280600a81526020017f323031362d30382d3032000000000000000000000000000000000000000000008152506040518060400160405280600a81526020017f323031392d30362d3133000000000000000000000000000000000000000000008152506200032360201b60201c565b6200031d60405180606001604052806031815260200162000e2b6031913960046040518060600160405280602a815260200162000e01602a91396040518060400160405280601b81526020017f436f6e73747275637475726120436f72727570746120532e412e5300000000008152506701aa535d3d0c00006040518060400160405280600a81526020017f323031322d30382d3236000000000000000000000000000000000000000000008152506040518060400160405280600a81526020017f323031342d30332d3132000000000000000000000000000000000000000000008152506200032360201b60201c565b6200051e565b6002600081548092919060010191905055506040518061014001604052806002548152602001888152602001600081526020016000815260200187815260200186815260200185815260200184815260200183815260200182815250600160006002548152602001908152602001600020600082015181600001556020820151816001019080519060200190620003bc9291906200046f565b5060408201518160020155606082015181600301556080820151816004015560a0820151816005019080519060200190620003f99291906200046f565b5060c0820151816006019080519060200190620004189291906200046f565b5060e08201518160070155610100820151816008019080519060200190620004429291906200046f565b50610120820151816009019080519060200190620004629291906200046f565b5090505050505050505050565b828054600181600116156101000203166002900490600052602060002090601f016020900481019282601f10620004b257805160ff1916838001178555620004e3565b82800160010185558215620004e3579182015b82811115620004e2578251825591602001919060010190620004c5565b5b509050620004f29190620004f6565b5090565b6200051b91905b8082111562000517576000816000905550600101620004fd565b5090565b90565b6108a9806200052e6000396000f3fe608060405234801561001057600080fd5b506004361061004c5760003560e01c80633bc79aef146100515780635c134d66146102cb578063824a914914610331578063c9d27afe1461034f575b600080fd5b61007d6004803603602081101561006757600080fd5b8101908080359060200190929190505050610389565b604051808b8152602001806020018a81526020018981526020018881526020018060200180602001878152602001806020018060200186810386528f818151815260200191508051906020019080838360005b838110156100eb5780820151818401526020810190506100d0565b50505050905090810190601f1680156101185780820380516001836020036101000a031916815260200191505b5086810385528b818151815260200191508051906020019080838360005b83811015610151578082015181840152602081019050610136565b50505050905090810190601f16801561017e5780820380516001836020036101000a031916815260200191505b5086810384528a818151815260200191508051906020019080838360005b838110156101b757808201518184015260208101905061019c565b50505050905090810190601f1680156101e45780820380516001836020036101000a031916815260200191505b50868103835288818151815260200191508051906020019080838360005b8381101561021d578082015181840152602081019050610202565b50505050905090810190601f16801561024a5780820380516001836020036101000a031916815260200191505b50868103825287818151815260200191508051906020019080838360005b83811015610283578082015181840152602081019050610268565b50505050905090810190601f1680156102b05780820380516001836020036101000a031916815260200191505b509f5050505050505050505050505050505060405180910390f35b610317600480360360408110156102e157600080fd5b81019080803573ffffffffffffffffffffffffffffffffffffffff169060200190929190803590602001909291905050506106d5565b604051808215151515815260200191505060405180910390f35b610339610704565b6040518082815260200191505060405180910390f35b6103876004803603604081101561036557600080fd5b810190808035906020019092919080351515906020019092919050505061070a565b005b6001602052806000526040600020600091509050806000015490806001018054600181600116156101000203166002900480601f01602080910402602001604051908101604052809291908181526020018280546001816001161561010002031660029004801561043b5780601f106104105761010080835404028352916020019161043b565b820191906000526020600020905b81548152906001019060200180831161041e57829003601f168201915b505050505090806002015490806003015490806004015490806005018054600181600116156101000203166002900480601f0160208091040260200160405190810160405280929190818152602001828054600181600116156101000203166002900480156104eb5780601f106104c0576101008083540402835291602001916104eb565b820191906000526020600020905b8154815290600101906020018083116104ce57829003601f168201915b505050505090806006018054600181600116156101000203166002900480601f0160208091040260200160405190810160405280929190818152602001828054600181600116156101000203166002900480156105895780601f1061055e57610100808354040283529160200191610589565b820191906000526020600020905b81548152906001019060200180831161056c57829003601f168201915b505050505090806007015490806008018054600181600116156101000203166002900480601f01602080910402602001604051908101604052809291908181526020018280546001816001161561010002031660029004801561062d5780601f106106025761010080835404028352916020019161062d565b820191906000526020600020905b81548152906001019060200180831161061057829003601f168201915b505050505090806009018054600181600116156101000203166002900480601f0160208091040260200160405190810160405280929190818152602001828054600181600116156101000203166002900480156106cb5780601f106106a0576101008083540402835291602001916106cb565b820191906000526020600020905b8154815290600101906020018083116106ae57829003601f168201915b505050505090508a565b60006020528160005260406000206020528060005260406000206000915091509054906101000a900460ff1681565b60025481565b6000803373ffffffffffffffffffffffffffffffffffffffff1673ffffffffffffffffffffffffffffffffffffffff168152602001908152602001600020600083815260200190815260200160002060009054906101000a900460ff161561077157600080fd5b60008211801561078357506002548211155b61078c57600080fd5b60016000803373ffffffffffffffffffffffffffffffffffffffff1673ffffffffffffffffffffffffffffffffffffffff168152602001908152602001600020600084815260200190815260200160002060006101000a81548160ff021916908315150217905550801561082557600160008381526020019081526020016000206002016000815480929190600101919050555061084c565b60016000838152602001908152602001600020600301600081548092919060010191905055505b817ffff3c900d938d21d0990d786e819f29b8d05c1ef587b462b939609625b684b1660405160405180910390a2505056fea165627a7a723058200478261f4f828ee2106ae5ca71db60b61a8e99e8c7d190e08d2da133027969d700293078383236636639314145356230636564363132633461333536364237353431383635443935334466363078324535633042313364313436366331644239453934333841364132373931324431384265313543395550412028556e69646164205072696d61726961206465204174656e63696f6e2920416e746f6e696f204e617269c3b16f307836434343433037343737446243334133423230326163383735303835663835384335633864323931",
  "source": "pragma solidity 0.5.8;\n\ncontract AuditoriaObras {\n  \n    struct ObraCivil{\n    \tuint idObra;\n    \tstring nombreObra;\n    \tuint cantVotosFavor;\n        uint cantVotosContra;\n        uint cantMinAprobacion;\n        string walletContratista;\n        string nombreContratista;\n        uint256 valorContrato;\n        string fechaIniContrato;\n        string fechaFinContrato;\n    }\n\n    //struct Voto{\n    //    string address;\n    //    uint idObra;\n    //    bool valorVotacion;\n    //    bool realizoVoto;\n    //}\n\n    //Guarda las direcciones de los votantes\n    mapping(address => mapping( uint => bool)) public voters;\n    //Guarda en un arreglo los objetos de obras\n    mapping (uint => ObraCivil) public obrasCiviles;\n    //variable para contar cantidad de obras civiles\n    uint public obrasCivilesCount;\n\n    // Constructor\n    constructor () public {\n       // se crean las obras civiles\n       addObraCivil(\"Ampliacion hospital Kennedy\", 6, \"0x6CCCC07477DbC3A3B202ac875085f858C5c8d291\", \"Odebrech Colombia\",0.16 ether, \"2017-02-21\", \"2018-09-10\");\n       \n       addObraCivil(\"Cinemateca Distrital\", 5, \"0x826cf91AE5b0ced612c4a3566B7541865D953Df6\", \"Constructura ACME S.A.\", 0.46 ether, \"2016-08-02\", \"2019-06-13\");\n\n       addObraCivil(\"UPA (Unidad Primaria de Atencion) Antonio Nariño\", 4, \"0x2E5c0B13d1466c1dB9E9438A6A27912D18Be15C9\", \"Constructura Corrupta S.A.S\", 0.12 ether, \"2012-08-26\", \"2014-03-12\");\n    }\n\n    function addObraCivil(string memory nombreObra, uint cantMinAprobacion,\n        string memory walletContratista, string memory nombreContratista,\n        uint256 valorContrato, string memory fechaIniContrato, string memory fechaFinContrato) private{\n    \t\n        obrasCivilesCount ++;\n    \t\n        obrasCiviles[obrasCivilesCount] = ObraCivil(obrasCivilesCount, nombreObra, 0,0, cantMinAprobacion, walletContratista, nombreContratista, valorContrato, fechaIniContrato, fechaFinContrato);\n    }\n\n    function vote (uint idObra, bool concepto) public {\n    \t// require that they haven't voted before\n    \trequire(!voters[msg.sender][idObra]);\n\n    \t// require a valid candidate\n    \trequire(idObra > 0 && idObra <= obrasCivilesCount);\n\n    \t// record that voter has voted\n    \tvoters[msg.sender][idObra] = true;\n        //voters[msg.sender] = Voto(msg.sender,idObra,concepto,true);\n\n    \t//update candidate vote count\n    \tif(concepto)\n            obrasCiviles[idObra].cantVotosFavor ++;\n        else\n            obrasCiviles[idObra].cantVotosContra ++;\n    \t// trigger voted event\n    \temit votedEvent(idObra);\n    }\n\n    event votedEvent(\n    \tuint indexed idObra\n    );\n}",
  "sourcePath": "/home/kevin/Documents/auditoria-construcciones/election/contracts/AuditoriaObras.sol",
  "compiler": {
    "name": "solc",
    "version": "0.5.8+commit.23d335f2.Emscripten.clang"
  },
  "schemaVersion": "3.0.11",
  "updatedAt": "2019-06-26T18:52:19.796Z",
  "devdoc": {
    "methods": {}
  },
  "userdoc": {
    "methods": {}
  }
}