{
  "contractName": "AuditoriaObras",
  "abi": [
    {
      "constant": true,
      "inputs": [
        {
          "name": "",
          "type": "uint256"
        }
      ],
      "name": "obrasCiviles",
      "outputs": [
        {
          "name": "idObra",
          "type": "uint256"
        },
        {
          "name": "nombreObra",
          "type": "string"
        },
        {
          "name": "cantVotosFavor",
          "type": "uint256"
        },
        {
          "name": "cantVotosContra",
          "type": "uint256"
        },
        {
          "name": "cantMinAprobacion",
          "type": "uint256"
        },
        {
          "name": "walletContratista",
          "type": "address"
        },
        {
          "name": "nombreContratista",
          "type": "string"
        },
        {
          "name": "valorContrato",
          "type": "uint256"
        },
        {
          "name": "fechaIniContrato",
          "type": "string"
        },
        {
          "name": "fechaFinContrato",
          "type": "string"
        },
        {
          "name": "contratoPagado",
          "type": "bool"
        }
      ],
      "payable": false,
      "stateMutability": "view",
      "type": "function"
    },
    {
      "constant": true,
      "inputs": [
        {
          "name": "",
          "type": "address"
        },
        {
          "name": "",
          "type": "uint256"
        }
      ],
      "name": "voters",
      "outputs": [
        {
          "name": "",
          "type": "bool"
        }
      ],
      "payable": false,
      "stateMutability": "view",
      "type": "function"
    },
    {
      "constant": true,
      "inputs": [],
      "name": "obrasCivilesCount",
      "outputs": [
        {
          "name": "",
          "type": "uint256"
        }
      ],
      "payable": false,
      "stateMutability": "view",
      "type": "function"
    },
    {
      "inputs": [],
      "payable": false,
      "stateMutability": "nonpayable",
      "type": "constructor"
    },
    {
      "payable": true,
      "stateMutability": "payable",
      "type": "fallback"
    },
    {
      "anonymous": false,
      "inputs": [
        {
          "indexed": true,
          "name": "idObra",
          "type": "uint256"
        }
      ],
      "name": "votedEvent",
      "type": "event"
    },
    {
      "constant": false,
      "inputs": [
        {
          "name": "idObra",
          "type": "uint256"
        },
        {
          "name": "concepto",
          "type": "bool"
        }
      ],
      "name": "vote",
      "outputs": [],
      "payable": false,
      "stateMutability": "nonpayable",
      "type": "function"
    },
    {
      "constant": false,
      "inputs": [
        {
          "name": "id",
          "type": "uint256"
        }
      ],
      "name": "pagarContrato",
      "outputs": [],
      "payable": false,
      "stateMutability": "nonpayable",
      "type": "function"
    }
  ],
  "bytecode": "0x60806040523480156200001157600080fd5b5060606040518060600160405280602a81526020016200124a602a913990506200014d6040518060400160405280601b81526020017f416d706c696163696f6e20686f73706974616c204b656e6e65647900000000008152506002620000966040518060600160405280602a81526020016200124a602a91396200037260201b60201c565b6040518060400160405280601181526020017f4f6465627265636820436f6c6f6d626961000000000000000000000000000000815250670737693eb33400006040518060400160405280600a81526020017f323031372d30322d3231000000000000000000000000000000000000000000008152506040518060400160405280600a81526020017f323031382d30392d313000000000000000000000000000000000000000000000815250620005df60201b60201c565b6200026a6040518060400160405280601481526020017f43696e656d61746563612044697374726974616c0000000000000000000000008152506005620001b36040518060600160405280602a815260200162001220602a91396200037260201b60201c565b6040518060400160405280601681526020017f436f6e7374727563747572612041434d4520532e412e000000000000000000008152506706623f9014ae00006040518060400160405280600a81526020017f323031362d30382d3032000000000000000000000000000000000000000000008152506040518060400160405280600a81526020017f323031392d30362d313300000000000000000000000000000000000000000000815250620005df60201b60201c565b6200036b6040518060600160405280603181526020016200129e603191396004620002b46040518060600160405280602a815260200162001274602a91396200037260201b60201c565b6040518060400160405280601b81526020017f436f6e73747275637475726120436f72727570746120532e412e5300000000008152506705698eef066700006040518060400160405280600a81526020017f323031322d30382d3236000000000000000000000000000000000000000000008152506040518060400160405280600a81526020017f323031342d30332d313200000000000000000000000000000000000000000000815250620005df60201b60201c565b5062000842565b6000606082905060008090506000806000600290505b602a811015620005d25761010084029350848181518110620003a657fe5b602001015160f81c60f81b60f81c60ff169250846001820181518110620003c957fe5b602001015160f81c60f81b60f81c60ff16915060618373ffffffffffffffffffffffffffffffffffffffff16101580156200041b575060668373ffffffffffffffffffffffffffffffffffffffff1611155b156200042d57605783039250620004cc565b60418373ffffffffffffffffffffffffffffffffffffffff16101580156200046c575060468373ffffffffffffffffffffffffffffffffffffffff1611155b156200047e57603783039250620004cb565b60308373ffffffffffffffffffffffffffffffffffffffff1610158015620004bd575060398373ffffffffffffffffffffffffffffffffffffffff1611155b15620004ca576030830392505b5b5b60618273ffffffffffffffffffffffffffffffffffffffff16101580156200050b575060668273ffffffffffffffffffffffffffffffffffffffff1611155b156200051d57605782039150620005bc565b60418273ffffffffffffffffffffffffffffffffffffffff16101580156200055c575060468273ffffffffffffffffffffffffffffffffffffffff1611155b156200056e57603782039150620005bb565b60308273ffffffffffffffffffffffffffffffffffffffff1610158015620005ad575060398273ffffffffffffffffffffffffffffffffffffffff1611155b15620005ba576030820391505b5b5b8160108402018401935060028101905062000388565b5082945050505050919050565b600260008154809291906001019190505550604051806101600160405280600254815260200188815260200160008152602001600081526020018781526020018673ffffffffffffffffffffffffffffffffffffffff168152602001858152602001848152602001838152602001828152602001600015158152506001600060025481526020019081526020016000206000820151816000015560208201518160010190805190602001906200069792919062000793565b5060408201518160020155606082015181600301556080820151816004015560a08201518160050160006101000a81548173ffffffffffffffffffffffffffffffffffffffff021916908373ffffffffffffffffffffffffffffffffffffffff16021790555060c08201518160060190805190602001906200071b92919062000793565b5060e082015181600701556101008201518160080190805190602001906200074592919062000793565b506101208201518160090190805190602001906200076592919062000793565b5061014082015181600a0160006101000a81548160ff02191690831515021790555090505050505050505050565b828054600181600116156101000203166002900490600052602060002090601f016020900481019282601f10620007d657805160ff191683800117855562000807565b8280016001018555821562000807579182015b8281111562000806578251825591602001919060010190620007e9565b5b5090506200081691906200081a565b5090565b6200083f91905b808211156200083b57600081600090555060010162000821565b5090565b90565b6109ce80620008526000396000f3fe60806040526004361061004a5760003560e01c80633bc79aef1461004c5780635c134d66146102a5578063824a914914610318578063c9d27afe14610343578063deedce581461038a575b005b34801561005857600080fd5b506100856004803603602081101561006f57600080fd5b81019080803590602001909291905050506103c5565b604051808c8152602001806020018b81526020018a81526020018981526020018873ffffffffffffffffffffffffffffffffffffffff1673ffffffffffffffffffffffffffffffffffffffff1681526020018060200187815260200180602001806020018615151515815260200185810385528f818151815260200191508051906020019080838360005b8381101561012b578082015181840152602081019050610110565b50505050905090810190601f1680156101585780820380516001836020036101000a031916815260200191505b5085810384528a818151815260200191508051906020019080838360005b83811015610191578082015181840152602081019050610176565b50505050905090810190601f1680156101be5780820380516001836020036101000a031916815260200191505b50858103835288818151815260200191508051906020019080838360005b838110156101f75780820151818401526020810190506101dc565b50505050905090810190601f1680156102245780820380516001836020036101000a031916815260200191505b50858103825287818151815260200191508051906020019080838360005b8381101561025d578082015181840152602081019050610242565b50505050905090810190601f16801561028a5780820380516001836020036101000a031916815260200191505b509f5050505050505050505050505050505060405180910390f35b3480156102b157600080fd5b506102fe600480360360408110156102c857600080fd5b81019080803573ffffffffffffffffffffffffffffffffffffffff169060200190929190803590602001909291905050506106ac565b604051808215151515815260200191505060405180910390f35b34801561032457600080fd5b5061032d6106db565b6040518082815260200191505060405180910390f35b34801561034f57600080fd5b506103886004803603604081101561036657600080fd5b81019080803590602001909291908035151590602001909291905050506106e1565b005b34801561039657600080fd5b506103c3600480360360208110156103ad57600080fd5b8101908080359060200190929190505050610906565b005b6001602052806000526040600020600091509050806000015490806001018054600181600116156101000203166002900480601f0160208091040260200160405190810160405280929190818152602001828054600181600116156101000203166002900480156104775780601f1061044c57610100808354040283529160200191610477565b820191906000526020600020905b81548152906001019060200180831161045a57829003601f168201915b5050505050908060020154908060030154908060040154908060050160009054906101000a900473ffffffffffffffffffffffffffffffffffffffff1690806006018054600181600116156101000203166002900480601f01602080910402602001604051908101604052809291908181526020018280546001816001161561010002031660029004801561054d5780601f106105225761010080835404028352916020019161054d565b820191906000526020600020905b81548152906001019060200180831161053057829003601f168201915b505050505090806007015490806008018054600181600116156101000203166002900480601f0160208091040260200160405190810160405280929190818152602001828054600181600116156101000203166002900480156105f15780601f106105c6576101008083540402835291602001916105f1565b820191906000526020600020905b8154815290600101906020018083116105d457829003601f168201915b505050505090806009018054600181600116156101000203166002900480601f01602080910402602001604051908101604052809291908181526020018280546001816001161561010002031660029004801561068f5780601f106106645761010080835404028352916020019161068f565b820191906000526020600020905b81548152906001019060200180831161067257829003601f168201915b50505050509080600a0160009054906101000a900460ff1690508b565b60006020528160005260406000206020528060005260406000206000915091509054906101000a900460ff1681565b60025481565b6000803373ffffffffffffffffffffffffffffffffffffffff1673ffffffffffffffffffffffffffffffffffffffff168152602001908152602001600020600083815260200190815260200160002060009054906101000a900460ff161561074857600080fd5b60008211801561075a57506002548211155b61076357600080fd5b60016000803373ffffffffffffffffffffffffffffffffffffffff1673ffffffffffffffffffffffffffffffffffffffff168152602001908152602001600020600084815260200190815260200160002060006101000a81548160ff02191690831515021790555080156107fc576001600083815260200190815260200160002060020160008154809291906001019190505550610823565b60016000838152602001908152602001600020600301600081548092919060010191905055505b60008211801561083557506002548211155b1561086857817ffff3c900d938d21d0990d786e819f29b8d05c1ef587b462b939609625b684b1660405160405180910390a25b60016000838152602001908152602001600020600401546001600084815260200190815260200160002060020154101580156108c5575060016000838152602001908152602001600020600a0160009054906101000a900460ff16155b15610902576108d382610906565b6001806000848152602001908152602001600020600a0160006101000a81548160ff0219169083151502179055505b5050565b60006001600083815260200190815260200160002060050160009054906101000a900473ffffffffffffffffffffffffffffffffffffffff1690508073ffffffffffffffffffffffffffffffffffffffff166108fc60016000858152602001908152602001600020600701549081150290604051600060405180830381858888f1935050505015801561099d573d6000803e3d6000fd5b50505056fea165627a7a72305820a090bb305d414771792060bf6add492191a47b96be083fd417a270c61991a73100293078383236636639314145356230636564363132633461333536364237353431383635443935334466363078334438346446344131373442653965373831334634413436363442313966463536333836463842373078324535633042313364313436366331644239453934333841364132373931324431384265313543395550412028556e69646164205072696d61726961206465204174656e63696f6e2920416e746f6e696f204e617269c3b16f",
  "source": "pragma solidity 0.5.8;\n\ncontract AuditoriaObras {\n  \n    struct ObraCivil{\n    \tuint idObra;\n    \tstring nombreObra;\n    \tuint cantVotosFavor;\n        uint cantVotosContra;\n        uint cantMinAprobacion;\n        address walletContratista;\n        string nombreContratista;\n        uint256 valorContrato;\n        string fechaIniContrato;\n        string fechaFinContrato;\n        bool contratoPagado;\n    }\n\n    //Guarda las direcciones de los votantes\n    mapping(address => mapping( uint => bool)) public voters;\n    //Guarda en un arreglo los objetos de obras\n    mapping (uint => ObraCivil) public obrasCiviles;\n    //variable para contar cantidad de obras civiles\n    uint public obrasCivilesCount;\n\n    // Constructor\n    constructor () public {\n        string memory wallet1 = \"0x3D84dF4A174Be9e7813F4A4664B19fF56386F8B7\";//\"0x6CCCC07477DbC3A3B202ac875085f858C5c8d291\"\n       // se crean las obras civiles\n       addObraCivil(\"Ampliacion hospital Kennedy\", 2, parseAddr(\"0x3D84dF4A174Be9e7813F4A4664B19fF56386F8B7\"), \"Odebrech Colombia\",0.52 ether, \"2017-02-21\", \"2018-09-10\");\n       \n       addObraCivil(\"Cinemateca Distrital\", 5, parseAddr(\"0x826cf91AE5b0ced612c4a3566B7541865D953Df6\"), \"Constructura ACME S.A.\", 0.46 ether, \"2016-08-02\", \"2019-06-13\");\n\n       addObraCivil(\"UPA (Unidad Primaria de Atencion) Antonio Nariño\", 4, parseAddr(\"0x2E5c0B13d1466c1dB9E9438A6A27912D18Be15C9\"), \"Constructura Corrupta S.A.S\", 0.39 ether, \"2012-08-26\", \"2014-03-12\");\n    }\n\n    function addObraCivil(string memory nombreObra, uint cantMinAprobacion,\n        address walletContratista, string memory nombreContratista,\n        uint256 valorContrato, string memory fechaIniContrato, string memory fechaFinContrato) private{\n    \t\n        obrasCivilesCount ++;\n    \t\n        obrasCiviles[obrasCivilesCount] = ObraCivil(obrasCivilesCount, nombreObra, 0,0, cantMinAprobacion, walletContratista, nombreContratista, valorContrato, fechaIniContrato, fechaFinContrato,false);\n    }\n\n    function vote (uint idObra, bool concepto) public {\n    \t// require that they haven't voted before\n    \trequire(!voters[msg.sender][idObra]);\n\n    \t// require a valid candidate\n    \trequire(idObra > 0 && idObra <= obrasCivilesCount);\n\n    \t// record that voter has voted\n    \tvoters[msg.sender][idObra] = true;\n        //voters[msg.sender] = Voto(msg.sender,idObra,concepto,true);\n\n    \t//update candidate vote count\n    \tif(concepto)\n            obrasCiviles[idObra].cantVotosFavor ++;\n        else\n            obrasCiviles[idObra].cantVotosContra ++;\n    \t// trigger voted event\n        if(idObra > 0 && idObra <= obrasCivilesCount)\n    \t   emit votedEvent(idObra);\n\n        if(obrasCiviles[idObra].cantVotosFavor >= obrasCiviles[idObra].cantMinAprobacion && !obrasCiviles[idObra].contratoPagado)\n            {   pagarContrato(idObra);\n                obrasCiviles[idObra].contratoPagado=true;\n            }\n    }\n\n    function pagarContrato(uint id) public{\n        address payable cuentaPagar = address(uint160(obrasCiviles[id].walletContratista));\n        cuentaPagar.transfer(obrasCiviles[id].valorContrato);\n    }\n\n    function() external payable { }\n\n    function parseAddr(string memory _a) internal pure returns (address _parsedAddress) {\n    bytes memory tmp = bytes(_a);\n    uint160 iaddr = 0;\n    uint160 b1;\n    uint160 b2;\n    for (uint i = 2; i < 2 + 2 * 20; i += 2) {\n        iaddr *= 256;\n        b1 = uint160(uint8(tmp[i]));\n        b2 = uint160(uint8(tmp[i + 1]));\n        if ((b1 >= 97) && (b1 <= 102)) {\n            b1 -= 87;\n        } else if ((b1 >= 65) && (b1 <= 70)) {\n            b1 -= 55;\n        } else if ((b1 >= 48) && (b1 <= 57)) {\n            b1 -= 48;\n        }\n        if ((b2 >= 97) && (b2 <= 102)) {\n            b2 -= 87;\n        } else if ((b2 >= 65) && (b2 <= 70)) {\n            b2 -= 55;\n        } else if ((b2 >= 48) && (b2 <= 57)) {\n            b2 -= 48;\n        }\n        iaddr += (b1 * 16 + b2);\n    }\n    return address(iaddr);\n}\n\n    event votedEvent(\n    \tuint indexed idObra\n    );\n}",
  "sourcePath": "/home/kevin/Documentos/Proyecto_blockchain/auditoria_obras/election/contracts/AuditoriaObras.sol",
  "compiler": {
    "name": "solc",
    "version": "0.5.8+commit.23d335f2.Emscripten.clang"
  },
  "schemaVersion": "3.0.11",
  "updatedAt": "2019-06-27T05:26:10.078Z",
  "devdoc": {
    "methods": {}
  },
  "userdoc": {
    "methods": {}
  }
}